{
  "contractName": "ContributorApprover",
  "abi": [
    {
      "constant": true,
      "inputs": [],
      "name": "cappedSaleStartTime",
      "outputs": [
        {
          "name": "",
          "type": "uint256"
        }
      ],
      "payable": false,
      "stateMutability": "view",
      "type": "function"
    },
    {
      "constant": true,
      "inputs": [],
      "name": "openSaleStartTime",
      "outputs": [
        {
          "name": "",
          "type": "uint256"
        }
      ],
      "payable": false,
      "stateMutability": "view",
      "type": "function"
    },
    {
      "constant": true,
      "inputs": [],
      "name": "list",
      "outputs": [
        {
          "name": "",
          "type": "address"
        }
      ],
      "payable": false,
      "stateMutability": "view",
      "type": "function"
    },
    {
      "constant": true,
      "inputs": [
        {
          "name": "contributor",
          "type": "address"
        },
        {
          "name": "amountInWei",
          "type": "uint256"
        }
      ],
      "name": "eligible",
      "outputs": [
        {
          "name": "",
          "type": "uint256"
        }
      ],
      "payable": false,
      "stateMutability": "view",
      "type": "function"
    },
    {
      "constant": true,
      "inputs": [
        {
          "name": "contributor",
          "type": "address"
        }
      ],
      "name": "contributorCap",
      "outputs": [
        {
          "name": "",
          "type": "uint256"
        }
      ],
      "payable": false,
      "stateMutability": "view",
      "type": "function"
    },
    {
      "constant": true,
      "inputs": [],
      "name": "saleStarted",
      "outputs": [
        {
          "name": "",
          "type": "bool"
        }
      ],
      "payable": false,
      "stateMutability": "view",
      "type": "function"
    },
    {
      "constant": true,
      "inputs": [],
      "name": "saleEnded",
      "outputs": [
        {
          "name": "",
          "type": "bool"
        }
      ],
      "payable": false,
      "stateMutability": "view",
      "type": "function"
    },
    {
      "constant": true,
      "inputs": [
        {
          "name": "",
          "type": "address"
        }
      ],
      "name": "participated",
      "outputs": [
        {
          "name": "",
          "type": "uint256"
        }
      ],
      "payable": false,
      "stateMutability": "view",
      "type": "function"
    },
    {
      "constant": true,
      "inputs": [],
      "name": "openSaleEndTime",
      "outputs": [
        {
          "name": "",
          "type": "uint256"
        }
      ],
      "payable": false,
      "stateMutability": "view",
      "type": "function"
    },
    {
      "inputs": [
        {
          "name": "_whitelistContract",
          "type": "address"
        },
        {
          "name": "_cappedSaleStartTime",
          "type": "uint256"
        },
        {
          "name": "_openSaleStartTime",
          "type": "uint256"
        },
        {
          "name": "_openSaleEndTime",
          "type": "uint256"
        }
      ],
      "payable": false,
      "stateMutability": "nonpayable",
      "type": "constructor"
    }
  ],
  "bytecode": "0x6060604052341561000f57600080fd5b60405160808061064783398101604052808051906020019091908051906020019091908051906020019091908051906020019091905050836000806101000a81548173ffffffffffffffffffffffffffffffffffffffff021916908373ffffffffffffffffffffffffffffffffffffffff160217905550826002819055508160038190555080600481905550600073ffffffffffffffffffffffffffffffffffffffff166000809054906101000a900473ffffffffffffffffffffffffffffffffffffffff1673ffffffffffffffffffffffffffffffffffffffff16141515156100f857600080fd5b60035460025410151561010a57600080fd5b60045460035410151561011c57600080fd5b505050506105188061012f6000396000f300606060405260043610610099576000357c0100000000000000000000000000000000000000000000000000000000900463ffffffff168063015f32f91461009e578063053e3169146100c75780630f560cd7146100f057806332b182c314610145578063442085b21461019b5780635c474f9e146101e85780639b8906ae14610215578063b3bd870a14610242578063e58018c51461028f575b600080fd5b34156100a957600080fd5b6100b16102b8565b6040518082815260200191505060405180910390f35b34156100d257600080fd5b6100da6102be565b6040518082815260200191505060405180910390f35b34156100fb57600080fd5b6101036102c4565b604051808273ffffffffffffffffffffffffffffffffffffffff1673ffffffffffffffffffffffffffffffffffffffff16815260200191505060405180910390f35b341561015057600080fd5b610185600480803573ffffffffffffffffffffffffffffffffffffffff169060200190919080359060200190919050506102e9565b6040518082815260200191505060405180910390f35b34156101a657600080fd5b6101d2600480803573ffffffffffffffffffffffffffffffffffffffff169060200190919050506103b4565b6040518082815260200191505060405180910390f35b34156101f357600080fd5b6101fb61049c565b604051808215151515815260200191505060405180910390f35b341561022057600080fd5b6102286104a9565b604051808215151515815260200191505060405180910390f35b341561024d57600080fd5b610279600480803573ffffffffffffffffffffffffffffffffffffffff169060200190919050506104b5565b6040518082815260200191505060405180910390f35b341561029a57600080fd5b6102a26104cd565b6040518082815260200191505060405180910390f35b60025481565b60035481565b6000809054906101000a900473ffffffffffffffffffffffffffffffffffffffff1681565b600080600060025442101561030157600092506103ac565b6004544210151561031557600092506103ac565b61031e856103b4565b9150600082141561033257600092506103ac565b6003544210156103a85761038e600160008773ffffffffffffffffffffffffffffffffffffffff1673ffffffffffffffffffffffffffffffffffffffff16815260200190815260200160002054836104d390919063ffffffff16565b9050838111156103a0578392506103ac565b8092506103ac565b8392505b505092915050565b60008060009054906101000a900473ffffffffffffffffffffffffffffffffffffffff1673ffffffffffffffffffffffffffffffffffffffff1663b3aefb75836000604051602001526040518263ffffffff167c0100000000000000000000000000000000000000000000000000000000028152600401808273ffffffffffffffffffffffffffffffffffffffff1673ffffffffffffffffffffffffffffffffffffffff168152602001915050602060405180830381600087803b151561047a57600080fd5b6102c65a03f1151561048b57600080fd5b505050604051805190509050919050565b6000600254421015905090565b60006004544211905090565b60016020528060005260406000206000915090505481565b60045481565b60008282111515156104e157fe5b8183039050929150505600a165627a7a72305820cc53f3f1ff3e5f1f3d57fe246978d1a86548e7084c9d54f6bd79c558f42609e00029",
  "source": "pragma solidity ^0.4.0;\n\nimport './zeppelin/ownership/Ownable.sol';\nimport './ContributorWhitelist.sol';\nimport './zeppelin/math/SafeMath.sol';\n\ncontract ContributorApprover {\n    ContributorWhitelist public list;\n    mapping(address=>uint)    public participated;\n\n    uint                      public cappedSaleStartTime;\n    uint                      public openSaleStartTime;\n    uint                      public openSaleEndTime;\n\n    using SafeMath for uint;\n\n\n    function ContributorApprover( ContributorWhitelist _whitelistContract,\n    uint                      _cappedSaleStartTime,\n    uint                      _openSaleStartTime,\n    uint                      _openSaleEndTime ) {\n        list = _whitelistContract;\n        cappedSaleStartTime = _cappedSaleStartTime;\n        openSaleStartTime = _openSaleStartTime;\n        openSaleEndTime = _openSaleEndTime;\n\n        require( list != ContributorWhitelist(0x0) );\n        require( cappedSaleStartTime < openSaleStartTime );\n        require(  openSaleStartTime < openSaleEndTime );\n    }\n\n    // this is a seperate function so user could query it before crowdsale starts\n    function contributorCap( address contributor ) constant returns(uint) {\n        return list.getCap( contributor );\n    }\n\n    function eligible( address contributor, uint amountInWei ) constant returns(uint) {\n        if( now < cappedSaleStartTime ) return 0;\n        if( now >= openSaleEndTime ) return 0;\n\n        uint cap = contributorCap( contributor );\n\n        if( cap == 0 ) return 0;\n        if( now < openSaleStartTime ) {\n            uint remainedCap = cap.sub( participated[ contributor ] );\n\n            if( remainedCap > amountInWei ) return amountInWei;\n            else return remainedCap;\n        }\n        else {\n            return amountInWei;\n        }\n    }\n\n    function eligibleTestAndIncrement( address contributor, uint amountInWei ) internal returns(uint) {\n        uint result = eligible( contributor, amountInWei );\n        participated[contributor] = participated[contributor].add( result );\n\n        return result;\n    }\n\n    function saleEnded() constant returns(bool) {\n        return now > openSaleEndTime;\n    }\n\n    function saleStarted() constant returns(bool) {\n        return now >= cappedSaleStartTime;\n    }\n}\n",
  "sourcePath": "/Users/tuongbui/Storage/icosmartcontract/contracts/ContributorApprover.sol",
  "compiler": {
    "name": "solc",
    "version": "0.4.18+commit.9cf6e910.Emscripten.clang"
  },
  "schemaVersion": "1.0.1",
  "updatedAt": "2018-01-27T06:44:14.474Z"
}