{
  "contractName": "TokenSaleSmartContract",
  "abi": [
    {
      "constant": true,
      "inputs": [],
      "name": "cappedSaleStartTime",
      "outputs": [
        {
          "name": "",
          "type": "uint256"
        }
      ],
      "payable": false,
      "stateMutability": "view",
      "type": "function"
    },
    {
      "constant": true,
      "inputs": [],
      "name": "openSaleStartTime",
      "outputs": [
        {
          "name": "",
          "type": "uint256"
        }
      ],
      "payable": false,
      "stateMutability": "view",
      "type": "function"
    },
    {
      "constant": true,
      "inputs": [],
      "name": "list",
      "outputs": [
        {
          "name": "",
          "type": "address"
        }
      ],
      "payable": false,
      "stateMutability": "view",
      "type": "function"
    },
    {
      "constant": true,
      "inputs": [
        {
          "name": "contributor",
          "type": "address"
        },
        {
          "name": "amountInWei",
          "type": "uint256"
        }
      ],
      "name": "eligible",
      "outputs": [
        {
          "name": "",
          "type": "uint256"
        }
      ],
      "payable": false,
      "stateMutability": "view",
      "type": "function"
    },
    {
      "constant": true,
      "inputs": [
        {
          "name": "contributor",
          "type": "address"
        }
      ],
      "name": "contributorCap",
      "outputs": [
        {
          "name": "",
          "type": "uint256"
        }
      ],
      "payable": false,
      "stateMutability": "view",
      "type": "function"
    },
    {
      "constant": true,
      "inputs": [],
      "name": "multiSigWallet",
      "outputs": [
        {
          "name": "",
          "type": "address"
        }
      ],
      "payable": false,
      "stateMutability": "view",
      "type": "function"
    },
    {
      "constant": false,
      "inputs": [],
      "name": "finalizeSale",
      "outputs": [],
      "payable": false,
      "stateMutability": "nonpayable",
      "type": "function"
    },
    {
      "constant": true,
      "inputs": [],
      "name": "saleStarted",
      "outputs": [
        {
          "name": "",
          "type": "bool"
        }
      ],
      "payable": false,
      "stateMutability": "view",
      "type": "function"
    },
    {
      "constant": true,
      "inputs": [],
      "name": "haltSale",
      "outputs": [
        {
          "name": "",
          "type": "bool"
        }
      ],
      "payable": false,
      "stateMutability": "view",
      "type": "function"
    },
    {
      "constant": false,
      "inputs": [
        {
          "name": "halt",
          "type": "bool"
        }
      ],
      "name": "setHaltSale",
      "outputs": [],
      "payable": false,
      "stateMutability": "nonpayable",
      "type": "function"
    },
    {
      "constant": false,
      "inputs": [
        {
          "name": "anyToken",
          "type": "address"
        }
      ],
      "name": "emergencyDrain",
      "outputs": [
        {
          "name": "",
          "type": "bool"
        }
      ],
      "payable": false,
      "stateMutability": "nonpayable",
      "type": "function"
    },
    {
      "constant": true,
      "inputs": [],
      "name": "saleEnded",
      "outputs": [
        {
          "name": "",
          "type": "bool"
        }
      ],
      "payable": false,
      "stateMutability": "view",
      "type": "function"
    },
    {
      "constant": false,
      "inputs": [
        {
          "name": "proxy",
          "type": "bytes32"
        },
        {
          "name": "recipient",
          "type": "address"
        }
      ],
      "name": "proxyBuy",
      "outputs": [
        {
          "name": "",
          "type": "uint256"
        }
      ],
      "payable": true,
      "stateMutability": "payable",
      "type": "function"
    },
    {
      "constant": false,
      "inputs": [],
      "name": "debugBuy",
      "outputs": [],
      "payable": true,
      "stateMutability": "payable",
      "type": "function"
    },
    {
      "constant": true,
      "inputs": [
        {
          "name": "",
          "type": "address"
        }
      ],
      "name": "participated",
      "outputs": [
        {
          "name": "",
          "type": "uint256"
        }
      ],
      "payable": false,
      "stateMutability": "view",
      "type": "function"
    },
    {
      "constant": true,
      "inputs": [],
      "name": "raisedWei",
      "outputs": [
        {
          "name": "",
          "type": "uint256"
        }
      ],
      "payable": false,
      "stateMutability": "view",
      "type": "function"
    },
    {
      "constant": true,
      "inputs": [
        {
          "name": "",
          "type": "bytes32"
        }
      ],
      "name": "proxyPurchases",
      "outputs": [
        {
          "name": "",
          "type": "uint256"
        }
      ],
      "payable": false,
      "stateMutability": "view",
      "type": "function"
    },
    {
      "constant": true,
      "inputs": [],
      "name": "openSaleEndTime",
      "outputs": [
        {
          "name": "",
          "type": "uint256"
        }
      ],
      "payable": false,
      "stateMutability": "view",
      "type": "function"
    },
    {
      "constant": false,
      "inputs": [
        {
          "name": "recipient",
          "type": "address"
        }
      ],
      "name": "buy",
      "outputs": [
        {
          "name": "",
          "type": "uint256"
        }
      ],
      "payable": true,
      "stateMutability": "payable",
      "type": "function"
    },
    {
      "constant": true,
      "inputs": [],
      "name": "admin",
      "outputs": [
        {
          "name": "",
          "type": "address"
        }
      ],
      "payable": false,
      "stateMutability": "view",
      "type": "function"
    },
    {
      "constant": true,
      "inputs": [],
      "name": "token",
      "outputs": [
        {
          "name": "",
          "type": "address"
        }
      ],
      "payable": false,
      "stateMutability": "view",
      "type": "function"
    },
    {
      "inputs": [
        {
          "name": "_admin",
          "type": "address"
        },
        {
          "name": "_multiSigWallet",
          "type": "address"
        },
        {
          "name": "_whilteListContract",
          "type": "address"
        },
        {
          "name": "_totalTokenSupply",
          "type": "uint256"
        },
        {
          "name": "_premintedTokenSupply",
          "type": "uint256"
        },
        {
          "name": "_cappedSaleStartTime",
          "type": "uint256"
        },
        {
          "name": "_publicSaleStartTime",
          "type": "uint256"
        },
        {
          "name": "_publicSaleEndTime",
          "type": "uint256"
        }
      ],
      "payable": false,
      "stateMutability": "nonpayable",
      "type": "constructor"
    },
    {
      "payable": true,
      "stateMutability": "payable",
      "type": "fallback"
    },
    {
      "anonymous": false,
      "inputs": [
        {
          "indexed": true,
          "name": "_proxy",
          "type": "bytes32"
        },
        {
          "indexed": false,
          "name": "_recipient",
          "type": "address"
        },
        {
          "indexed": false,
          "name": "_amountInWei",
          "type": "uint256"
        }
      ],
      "name": "ProxyBuy",
      "type": "event"
    },
    {
      "anonymous": false,
      "inputs": [
        {
          "indexed": false,
          "name": "_buyer",
          "type": "address"
        },
        {
          "indexed": false,
          "name": "_tokens",
          "type": "uint256"
        },
        {
          "indexed": false,
          "name": "_payedWei",
          "type": "uint256"
        }
      ],
      "name": "Buy",
      "type": "event"
    },
    {
      "anonymous": false,
      "inputs": [],
      "name": "FinalizeSale",
      "type": "event"
    }
  ],
  "bytecode": "0x6060604052341561000f57600080fd5b6040516101008062002e348339810160405280805190602001909190805190602001909190805190602001909190805190602001909190805190602001909190805190602001909190805190602001909190805190602001909190505085838383836000806101000a81548173ffffffffffffffffffffffffffffffffffffffff021916908373ffffffffffffffffffffffffffffffffffffffff160217905550826002819055508160038190555080600481905550600073ffffffffffffffffffffffffffffffffffffffff166000809054906101000a900473ffffffffffffffffffffffffffffffffffffffff1673ffffffffffffffffffffffffffffffffffffffff161415151561012257600080fd5b60035460025410151561013457600080fd5b60045460035410151561014657600080fd5b5050505087600560006101000a81548173ffffffffffffffffffffffffffffffffffffffff021916908373ffffffffffffffffffffffffffffffffffffffff16021790555086600660006101000a81548173ffffffffffffffffffffffffffffffffffffffff021916908373ffffffffffffffffffffffffffffffffffffffff160217905550848362093a8083018a6101dd610396565b808581526020018481526020018381526020018273ffffffffffffffffffffffffffffffffffffffff1673ffffffffffffffffffffffffffffffffffffffff168152602001945050505050604051809103906000f080151561023e57600080fd5b600760006101000a81548173ffffffffffffffffffffffffffffffffffffffff021916908373ffffffffffffffffffffffffffffffffffffffff160217905550600760009054906101000a900473ffffffffffffffffffffffffffffffffffffffff1673ffffffffffffffffffffffffffffffffffffffff1663a9059cbb600660009054906101000a900473ffffffffffffffffffffffffffffffffffffffff16866000604051602001526040518363ffffffff167c0100000000000000000000000000000000000000000000000000000000028152600401808373ffffffffffffffffffffffffffffffffffffffff1673ffffffffffffffffffffffffffffffffffffffff16815260200182815260200192505050602060405180830381600087803b151561036d57600080fd5b6102c65a03f1151561037e57600080fd5b505050604051805190505050505050505050506103a7565b60405161176b80620016c983390190565b61131280620003b76000396000f30060606040526004361061011d576000357c0100000000000000000000000000000000000000000000000000000000900463ffffffff168063015f32f914610129578063053e3169146101525780630f560cd71461017b57806332b182c3146101d0578063442085b2146102265780634b8feb4f1461027357806358a687ec146102c85780635c474f9e146102dd5780635fbaa3901461030a57806362aac84d1461033757806371a18bfb1461035c5780639b8906ae146103ad578063adfceb9a146103da578063b1f5618714610429578063b3bd870a14610433578063bc59d45a14610480578063d2fa1f8b146104a9578063e58018c5146104e4578063f088d5471461050d578063f851a4401461054f578063fc0c546a146105a4575b610126336105f9565b50005b341561013457600080fd5b61013c610873565b6040518082815260200191505060405180910390f35b341561015d57600080fd5b610165610879565b6040518082815260200191505060405180910390f35b341561018657600080fd5b61018e61087f565b604051808273ffffffffffffffffffffffffffffffffffffffff1673ffffffffffffffffffffffffffffffffffffffff16815260200191505060405180910390f35b34156101db57600080fd5b610210600480803573ffffffffffffffffffffffffffffffffffffffff169060200190919080359060200190919050506108a4565b6040518082815260200191505060405180910390f35b341561023157600080fd5b61025d600480803573ffffffffffffffffffffffffffffffffffffffff1690602001909190505061096f565b6040518082815260200191505060405180910390f35b341561027e57600080fd5b610286610a57565b604051808273ffffffffffffffffffffffffffffffffffffffff1673ffffffffffffffffffffffffffffffffffffffff16815260200191505060405180910390f35b34156102d357600080fd5b6102db610a7d565b005b34156102e857600080fd5b6102f0610cae565b604051808215151515815260200191505060405180910390f35b341561031557600080fd5b61031d610cbb565b604051808215151515815260200191505060405180910390f35b341561034257600080fd5b61035a60048080351515906020019091905050610cce565b005b341561036757600080fd5b610393600480803573ffffffffffffffffffffffffffffffffffffffff16906020019091905050610d47565b604051808215151515815260200191505060405180910390f35b34156103b857600080fd5b6103c0610fe6565b604051808215151515815260200191505060405180910390f35b61041360048080356000191690602001909190803573ffffffffffffffffffffffffffffffffffffffff16906020019091905050610ff2565b6040518082815260200191505060405180910390f35b6104316110c7565b005b341561043e57600080fd5b61046a600480803573ffffffffffffffffffffffffffffffffffffffff169060200190919050506110e1565b6040518082815260200191505060405180910390f35b341561048b57600080fd5b6104936110f9565b6040518082815260200191505060405180910390f35b34156104b457600080fd5b6104ce6004808035600019169060200190919050506110ff565b6040518082815260200191505060405180910390f35b34156104ef57600080fd5b6104f7611117565b6040518082815260200191505060405180910390f35b610539600480803573ffffffffffffffffffffffffffffffffffffffff169060200190919050506105f9565b6040518082815260200191505060405180910390f35b341561055a57600080fd5b61056261111d565b604051808273ffffffffffffffffffffffffffffffffffffffff1673ffffffffffffffffffffffffffffffffffffffff16815260200191505060405180910390f35b34156105af57600080fd5b6105b7611143565b604051808273ffffffffffffffffffffffffffffffffffffffff1673ffffffffffffffffffffffffffffffffffffffff16815260200191505060405180910390f35b6000806000640ba43b74003a1115151561061257600080fd5b600960009054906101000a900460ff1615151561062e57600080fd5b610636610cae565b151561064157600080fd5b610649610fe6565b15151561065557600080fd5b61065f8434611169565b915060008211151561067057600080fd5b813411156106cb573373ffffffffffffffffffffffffffffffffffffffff166108fc6106a5843461121790919063ffffffff16565b9081150290604051600060405180830381858888f1935050505015156106ca57600080fd5b5b6106d482611230565b6106e98260085461129590919063ffffffff16565b600881905550610704610258836112b390919063ffffffff16565b9050600760009054906101000a900473ffffffffffffffffffffffffffffffffffffffff1673ffffffffffffffffffffffffffffffffffffffff1663a9059cbb85836000604051602001526040518363ffffffff167c0100000000000000000000000000000000000000000000000000000000028152600401808373ffffffffffffffffffffffffffffffffffffffff1673ffffffffffffffffffffffffffffffffffffffff16815260200182815260200192505050602060405180830381600087803b15156107d357600080fd5b6102c65a03f115156107e457600080fd5b5050506040518051905015156107f657fe5b7f1cbc5ab135991bd2b6a4b034a04aa2aa086dac1371cb9b16b8b5e2ed6b036bed848284604051808473ffffffffffffffffffffffffffffffffffffffff1673ffffffffffffffffffffffffffffffffffffffff168152602001838152602001828152602001935050505060405180910390a18192505050919050565b60025481565b60035481565b6000809054906101000a900473ffffffffffffffffffffffffffffffffffffffff1681565b60008060006002544210156108bc5760009250610967565b600454421015156108d05760009250610967565b6108d98561096f565b915060008214156108ed5760009250610967565b60035442101561096357610949600160008773ffffffffffffffffffffffffffffffffffffffff1673ffffffffffffffffffffffffffffffffffffffff168152602001908152602001600020548361121790919063ffffffff16565b90508381111561095b57839250610967565b809250610967565b8392505b505092915050565b60008060009054906101000a900473ffffffffffffffffffffffffffffffffffffffff1673ffffffffffffffffffffffffffffffffffffffff1663b3aefb75836000604051602001526040518263ffffffff167c0100000000000000000000000000000000000000000000000000000000028152600401808273ffffffffffffffffffffffffffffffffffffffff1673ffffffffffffffffffffffffffffffffffffffff168152602001915050602060405180830381600087803b1515610a3557600080fd5b6102c65a03f11515610a4657600080fd5b505050604051805190509050919050565b600660009054906101000a900473ffffffffffffffffffffffffffffffffffffffff1681565b610a85610fe6565b1515610a9057600080fd5b600560009054906101000a900473ffffffffffffffffffffffffffffffffffffffff1673ffffffffffffffffffffffffffffffffffffffff163373ffffffffffffffffffffffffffffffffffffffff16141515610aec57600080fd5b600760009054906101000a900473ffffffffffffffffffffffffffffffffffffffff1673ffffffffffffffffffffffffffffffffffffffff166342966c68600760009054906101000a900473ffffffffffffffffffffffffffffffffffffffff1673ffffffffffffffffffffffffffffffffffffffff166370a08231306000604051602001526040518263ffffffff167c0100000000000000000000000000000000000000000000000000000000028152600401808273ffffffffffffffffffffffffffffffffffffffff1673ffffffffffffffffffffffffffffffffffffffff168152602001915050602060405180830381600087803b1515610bef57600080fd5b6102c65a03f11515610c0057600080fd5b505050604051805190506000604051602001526040518263ffffffff167c010000000000000000000000000000000000000000000000000000000002815260040180828152602001915050602060405180830381600087803b1515610c6457600080fd5b6102c65a03f11515610c7557600080fd5b50505060405180519050507f49943394d1d9872d58364da1ca74d2b7af3f9be1146ac3c37513b0b1cb97ae2b60405160405180910390a1565b6000600254421015905090565b600960009054906101000a900460ff1681565b600560009054906101000a900473ffffffffffffffffffffffffffffffffffffffff1673ffffffffffffffffffffffffffffffffffffffff163373ffffffffffffffffffffffffffffffffffffffff16141515610d2a57600080fd5b80600960006101000a81548160ff02191690831515021790555050565b6000600560009054906101000a900473ffffffffffffffffffffffffffffffffffffffff1673ffffffffffffffffffffffffffffffffffffffff163373ffffffffffffffffffffffffffffffffffffffff16141515610da557600080fd5b610dad610fe6565b1515610db857600080fd5b60003073ffffffffffffffffffffffffffffffffffffffff16311115610df957610df83073ffffffffffffffffffffffffffffffffffffffff1631611230565b5b600073ffffffffffffffffffffffffffffffffffffffff168273ffffffffffffffffffffffffffffffffffffffff16141515610fdd578173ffffffffffffffffffffffffffffffffffffffff1663a9059cbb600660009054906101000a900473ffffffffffffffffffffffffffffffffffffffff168473ffffffffffffffffffffffffffffffffffffffff166370a08231306000604051602001526040518263ffffffff167c0100000000000000000000000000000000000000000000000000000000028152600401808273ffffffffffffffffffffffffffffffffffffffff1673ffffffffffffffffffffffffffffffffffffffff168152602001915050602060405180830381600087803b1515610f1157600080fd5b6102c65a03f11515610f2257600080fd5b505050604051805190506000604051602001526040518363ffffffff167c0100000000000000000000000000000000000000000000000000000000028152600401808373ffffffffffffffffffffffffffffffffffffffff1673ffffffffffffffffffffffffffffffffffffffff16815260200182815260200192505050602060405180830381600087803b1515610fb957600080fd5b6102c65a03f11515610fca57600080fd5b505050604051805190501515610fdc57fe5b5b60019050919050565b60006004544211905090565b600080610ffe836105f9565b905061102e81600a600087600019166000191681526020019081526020016000205461129590919063ffffffff16565b600a600086600019166000191681526020019081526020016000208190555083600019167f09b5e4ada20eb4159976b564984473a225172608d4205eeafdc663a0cea8d4848483604051808373ffffffffffffffffffffffffffffffffffffffff1673ffffffffffffffffffffffffffffffffffffffff1681526020018281526020019250505060405180910390a28091505092915050565b607b341415156110d657600080fd5b6110df34611230565b565b60016020528060005260406000206000915090505481565b60085481565b600a6020528060005260406000206000915090505481565b60045481565b600560009054906101000a900473ffffffffffffffffffffffffffffffffffffffff1681565b600760009054906101000a900473ffffffffffffffffffffffffffffffffffffffff1681565b60008061117684846108a4565b90506111ca81600160008773ffffffffffffffffffffffffffffffffffffffff1673ffffffffffffffffffffffffffffffffffffffff1681526020019081526020016000205461129590919063ffffffff16565b600160008673ffffffffffffffffffffffffffffffffffffffff1673ffffffffffffffffffffffffffffffffffffffff168152602001908152602001600020819055508091505092915050565b600082821115151561122557fe5b818303905092915050565b600660009054906101000a900473ffffffffffffffffffffffffffffffffffffffff1673ffffffffffffffffffffffffffffffffffffffff166108fc829081150290604051600060405180830381858888f19350505050151561129257600080fd5b50565b60008082840190508381101515156112a957fe5b8091505092915050565b600080828402905060008414806112d457508284828115156112d157fe5b04145b15156112dc57fe5b80915050929150505600a165627a7a72305820d367761cc17b50602b5a9aece2781e02028cf326a334bb110d78fd6140d93a6b00296060604052341561000f57600080fd5b60405160808061176b8339810160405280805190602001909190805190602001909190805190602001909190805190602001909190505033600360006101000a81548173ffffffffffffffffffffffffffffffffffffffff021916908373ffffffffffffffffffffffffffffffffffffffff16021790555083600160003373ffffffffffffffffffffffffffffffffffffffff1673ffffffffffffffffffffffffffffffffffffffff16815260200190815260200160002081905550836000819055503373ffffffffffffffffffffffffffffffffffffffff16600073ffffffffffffffffffffffffffffffffffffffff167fddf252ad1be2c89b69c2b068fc378daa952ba7f163c4a11628f55a4df523b3ef866040518082815260200191505060405180910390a3826004819055508160058190555033600660006101000a81548173ffffffffffffffffffffffffffffffffffffffff021916908373ffffffffffffffffffffffffffffffffffffffff1602179055506101a3816101ac64010000000002610f54176401000000009004565b50505050610283565b600360009054906101000a900473ffffffffffffffffffffffffffffffffffffffff1673ffffffffffffffffffffffffffffffffffffffff163373ffffffffffffffffffffffffffffffffffffffff1614151561020857600080fd5b600073ffffffffffffffffffffffffffffffffffffffff168173ffffffffffffffffffffffffffffffffffffffff161415156102805780600360006101000a81548173ffffffffffffffffffffffffffffffffffffffff021916908373ffffffffffffffffffffffffffffffffffffffff1602179055505b50565b6114d9806102926000396000f3006060604052600436106100f1576000357c0100000000000000000000000000000000000000000000000000000000900463ffffffff16806306fdde03146100f6578063095ea7b31461018457806318160ddd146101de5780631cbaee2d1461020757806323b872dd14610230578063313ce567146102a957806342966c68146102d25780635d5aa2771461030d57806370a082311461036257806379cc6790146103af5780638da5cb5b1461040957806395d89b411461045e578063a9059cbb146104ec578063db0e16f114610546578063dd62ed3e14610588578063ed338ff1146105f4578063f2fde38b1461061d575b600080fd5b341561010157600080fd5b610109610656565b6040518080602001828103825283818151815260200191508051906020019080838360005b8381101561014957808201518184015260208101905061012e565b50505050905090810190601f1680156101765780820380516001836020036101000a031916815260200191505b509250505060405180910390f35b341561018f57600080fd5b6101c4600480803573ffffffffffffffffffffffffffffffffffffffff1690602001909190803590602001909190505061068f565b604051808215151515815260200191505060405180910390f35b34156101e957600080fd5b6101f1610816565b6040518082815260200191505060405180910390f35b341561021257600080fd5b61021a61081c565b6040518082815260200191505060405180910390f35b341561023b57600080fd5b61028f600480803573ffffffffffffffffffffffffffffffffffffffff1690602001909190803573ffffffffffffffffffffffffffffffffffffffff16906020019091908035906020019091905050610822565b604051808215151515815260200191505060405180910390f35b34156102b457600080fd5b6102bc610927565b6040518082815260200191505060405180910390f35b34156102dd57600080fd5b6102f3600480803590602001909190505061092c565b604051808215151515815260200191505060405180910390f35b341561031857600080fd5b610320610b11565b604051808273ffffffffffffffffffffffffffffffffffffffff1673ffffffffffffffffffffffffffffffffffffffff16815260200191505060405180910390f35b341561036d57600080fd5b610399600480803573ffffffffffffffffffffffffffffffffffffffff16906020019091905050610b37565b6040518082815260200191505060405180910390f35b34156103ba57600080fd5b6103ef600480803573ffffffffffffffffffffffffffffffffffffffff16906020019091908035906020019091905050610b80565b604051808215151515815260200191505060405180910390f35b341561041457600080fd5b61041c610c1c565b604051808273ffffffffffffffffffffffffffffffffffffffff1673ffffffffffffffffffffffffffffffffffffffff16815260200191505060405180910390f35b341561046957600080fd5b610471610c42565b6040518080602001828103825283818151815260200191508051906020019080838360005b838110156104b1578082015181840152602081019050610496565b50505050905090810190601f1680156104de5780820380516001836020036101000a031916815260200191505b509250505060405180910390f35b34156104f757600080fd5b61052c600480803573ffffffffffffffffffffffffffffffffffffffff16906020019091908035906020019091905050610c7b565b604051808215151515815260200191505060405180910390f35b341561055157600080fd5b610586600480803573ffffffffffffffffffffffffffffffffffffffff16906020019091908035906020019091905050610d7e565b005b341561059357600080fd5b6105de600480803573ffffffffffffffffffffffffffffffffffffffff1690602001909190803573ffffffffffffffffffffffffffffffffffffffff16906020019091905050610ec7565b6040518082815260200191505060405180910390f35b34156105ff57600080fd5b610607610f4e565b6040518082815260200191505060405180910390f35b341561062857600080fd5b610654600480803573ffffffffffffffffffffffffffffffffffffffff16906020019091905050610f54565b005b6040805190810160405280600a81526020017f546f6b656e204e616d650000000000000000000000000000000000000000000081525081565b60008082148061071b57506000600260003373ffffffffffffffffffffffffffffffffffffffff1673ffffffffffffffffffffffffffffffffffffffff16815260200190815260200160002060008573ffffffffffffffffffffffffffffffffffffffff1673ffffffffffffffffffffffffffffffffffffffff16815260200190815260200160002054145b151561072657600080fd5b81600260003373ffffffffffffffffffffffffffffffffffffffff1673ffffffffffffffffffffffffffffffffffffffff16815260200190815260200160002060008573ffffffffffffffffffffffffffffffffffffffff1673ffffffffffffffffffffffffffffffffffffffff168152602001908152602001600020819055508273ffffffffffffffffffffffffffffffffffffffff163373ffffffffffffffffffffffffffffffffffffffff167f8c5be1e5ebec7d5bd14f71427d1e84f3dd0314c0f7b2291e5b200ac8c7c3b925846040518082815260200191505060405180910390a36001905092915050565b60005481565b60045481565b6000600554421115801561083857506004544210155b1561089a57600660009054906101000a900473ffffffffffffffffffffffffffffffffffffffff1673ffffffffffffffffffffffffffffffffffffffff163373ffffffffffffffffffffffffffffffffffffffff1614151561089957600080fd5b5b82600073ffffffffffffffffffffffffffffffffffffffff168173ffffffffffffffffffffffffffffffffffffffff16141515156108d757600080fd5b3073ffffffffffffffffffffffffffffffffffffffff168173ffffffffffffffffffffffffffffffffffffffff161415151561091257600080fd5b61091d85858561102b565b9150509392505050565b601281565b6000600554421115801561094257506004544210155b156109a457600660009054906101000a900473ffffffffffffffffffffffffffffffffffffffff1673ffffffffffffffffffffffffffffffffffffffff163373ffffffffffffffffffffffffffffffffffffffff161415156109a357600080fd5b5b6109f682600160003373ffffffffffffffffffffffffffffffffffffffff1673ffffffffffffffffffffffffffffffffffffffff168152602001908152602001600020546112db90919063ffffffff16565b600160003373ffffffffffffffffffffffffffffffffffffffff1673ffffffffffffffffffffffffffffffffffffffff16815260200190815260200160002081905550610a4e826000546112db90919063ffffffff16565b6000819055503373ffffffffffffffffffffffffffffffffffffffff167fcc16f5dbb4873280815c1ee09dbd06736cffcc184412cf7a71a0fdb75d397ca5836040518082815260200191505060405180910390a2600073ffffffffffffffffffffffffffffffffffffffff163373ffffffffffffffffffffffffffffffffffffffff167fddf252ad1be2c89b69c2b068fc378daa952ba7f163c4a11628f55a4df523b3ef846040518082815260200191505060405180910390a360019050919050565b600660009054906101000a900473ffffffffffffffffffffffffffffffffffffffff1681565b6000600160008373ffffffffffffffffffffffffffffffffffffffff1673ffffffffffffffffffffffffffffffffffffffff168152602001908152602001600020549050919050565b60006005544211158015610b9657506004544210155b15610bf857600660009054906101000a900473ffffffffffffffffffffffffffffffffffffffff1673ffffffffffffffffffffffffffffffffffffffff163373ffffffffffffffffffffffffffffffffffffffff16141515610bf757600080fd5b5b610c03833384610822565b1515610c0b57fe5b610c148261092c565b905092915050565b600360009054906101000a900473ffffffffffffffffffffffffffffffffffffffff1681565b6040805190810160405280600281526020017f544e00000000000000000000000000000000000000000000000000000000000081525081565b60006005544211158015610c9157506004544210155b15610cf357600660009054906101000a900473ffffffffffffffffffffffffffffffffffffffff1673ffffffffffffffffffffffffffffffffffffffff163373ffffffffffffffffffffffffffffffffffffffff16141515610cf257600080fd5b5b82600073ffffffffffffffffffffffffffffffffffffffff168173ffffffffffffffffffffffffffffffffffffffff1614151515610d3057600080fd5b3073ffffffffffffffffffffffffffffffffffffffff168173ffffffffffffffffffffffffffffffffffffffff1614151515610d6b57600080fd5b610d7584846112f4565b91505092915050565b600360009054906101000a900473ffffffffffffffffffffffffffffffffffffffff1673ffffffffffffffffffffffffffffffffffffffff163373ffffffffffffffffffffffffffffffffffffffff16141515610dda57600080fd5b8173ffffffffffffffffffffffffffffffffffffffff1663a9059cbb600360009054906101000a900473ffffffffffffffffffffffffffffffffffffffff16836000604051602001526040518363ffffffff167c0100000000000000000000000000000000000000000000000000000000028152600401808373ffffffffffffffffffffffffffffffffffffffff1673ffffffffffffffffffffffffffffffffffffffff16815260200182815260200192505050602060405180830381600087803b1515610ea757600080fd5b6102c65a03f11515610eb857600080fd5b50505060405180519050505050565b6000600260008473ffffffffffffffffffffffffffffffffffffffff1673ffffffffffffffffffffffffffffffffffffffff16815260200190815260200160002060008373ffffffffffffffffffffffffffffffffffffffff1673ffffffffffffffffffffffffffffffffffffffff16815260200190815260200160002054905092915050565b60055481565b600360009054906101000a900473ffffffffffffffffffffffffffffffffffffffff1673ffffffffffffffffffffffffffffffffffffffff163373ffffffffffffffffffffffffffffffffffffffff16141515610fb057600080fd5b600073ffffffffffffffffffffffffffffffffffffffff168173ffffffffffffffffffffffffffffffffffffffff161415156110285780600360006101000a81548173ffffffffffffffffffffffffffffffffffffffff021916908373ffffffffffffffffffffffffffffffffffffffff1602179055505b50565b600080600260008673ffffffffffffffffffffffffffffffffffffffff1673ffffffffffffffffffffffffffffffffffffffff16815260200190815260200160002060003373ffffffffffffffffffffffffffffffffffffffff1673ffffffffffffffffffffffffffffffffffffffff1681526020019081526020016000205490506110ff83600160008873ffffffffffffffffffffffffffffffffffffffff1673ffffffffffffffffffffffffffffffffffffffff168152602001908152602001600020546112db90919063ffffffff16565b600160008773ffffffffffffffffffffffffffffffffffffffff1673ffffffffffffffffffffffffffffffffffffffff1681526020019081526020016000208190555061119483600160008773ffffffffffffffffffffffffffffffffffffffff1673ffffffffffffffffffffffffffffffffffffffff1681526020019081526020016000205461148f90919063ffffffff16565b600160008673ffffffffffffffffffffffffffffffffffffffff1673ffffffffffffffffffffffffffffffffffffffff168152602001908152602001600020819055506111ea83826112db90919063ffffffff16565b600260008773ffffffffffffffffffffffffffffffffffffffff1673ffffffffffffffffffffffffffffffffffffffff16815260200190815260200160002060003373ffffffffffffffffffffffffffffffffffffffff1673ffffffffffffffffffffffffffffffffffffffff168152602001908152602001600020819055508373ffffffffffffffffffffffffffffffffffffffff168573ffffffffffffffffffffffffffffffffffffffff167fddf252ad1be2c89b69c2b068fc378daa952ba7f163c4a11628f55a4df523b3ef856040518082815260200191505060405180910390a360019150509392505050565b60008282111515156112e957fe5b818303905092915050565b600061134882600160003373ffffffffffffffffffffffffffffffffffffffff1673ffffffffffffffffffffffffffffffffffffffff168152602001908152602001600020546112db90919063ffffffff16565b600160003373ffffffffffffffffffffffffffffffffffffffff1673ffffffffffffffffffffffffffffffffffffffff168152602001908152602001600020819055506113dd82600160008673ffffffffffffffffffffffffffffffffffffffff1673ffffffffffffffffffffffffffffffffffffffff1681526020019081526020016000205461148f90919063ffffffff16565b600160008573ffffffffffffffffffffffffffffffffffffffff1673ffffffffffffffffffffffffffffffffffffffff168152602001908152602001600020819055508273ffffffffffffffffffffffffffffffffffffffff163373ffffffffffffffffffffffffffffffffffffffff167fddf252ad1be2c89b69c2b068fc378daa952ba7f163c4a11628f55a4df523b3ef846040518082815260200191505060405180910390a36001905092915050565b60008082840190508381101515156114a357fe5b80915050929150505600a165627a7a72305820b2686df272a9bc700ba97d352a4f11d927f799602d313865cf97444d7c2078390029",
  "source": "pragma solidity ^0.4.0;\n\nimport './TokenSmartContract.sol';\nimport './ContributorApprover.sol';\nimport './ContributorWhitelist.sol';\n\ncontract TokenSaleSmartContract is ContributorApprover{\n    address             public admin;\n    address             public multiSigWallet; // can be a single wallet\n    TokenSmartContract public token;\n    uint                public raisedWei;\n    bool                public haltSale;\n\n    mapping(bytes32=>uint) public proxyPurchases;\n\n    function TokenSaleSmartContract( address _admin,\n    address _multiSigWallet,\n    ContributorWhitelist _whilteListContract,\n    uint _totalTokenSupply,\n    uint _premintedTokenSupply,\n    uint _cappedSaleStartTime,\n    uint _publicSaleStartTime,\n    uint _publicSaleEndTime )\n\n    ContributorApprover( _whilteListContract,\n    _cappedSaleStartTime,\n    _publicSaleStartTime,\n    _publicSaleEndTime )\n    {\n        admin = _admin;\n        multiSigWallet = _multiSigWallet;\n\n        token = new TokenSmartContract( _totalTokenSupply,\n        _cappedSaleStartTime,\n        _publicSaleEndTime + 7 days, /// 7 can changed depending on each project\n        _admin );\n\n        // transfer preminted tokens to company wallet\n        token.transfer( multiSigWallet, _premintedTokenSupply );\n    }\n\n    function setHaltSale( bool halt ) {\n        require( msg.sender == admin );\n        haltSale = halt;\n    }\n\n    function() payable {\n        buy( msg.sender );\n    }\n\n    event ProxyBuy( bytes32 indexed _proxy, address _recipient, uint _amountInWei );\n    function proxyBuy( bytes32 proxy, address recipient ) payable returns(uint){\n        uint amount = buy( recipient );\n        proxyPurchases[proxy] = proxyPurchases[proxy].add(amount);\n        ProxyBuy( proxy, recipient, amount );\n\n        return amount;\n    }\n\n    event Buy( address _buyer, uint _tokens, uint _payedWei );\n    function buy( address recipient ) payable returns(uint){\n        require( tx.gasprice <= 50000000000 wei );\n\n        require( ! haltSale );\n        require( saleStarted() );\n        require( ! saleEnded() );\n\n        uint weiPayment = eligibleTestAndIncrement( recipient, msg.value );\n\n        require( weiPayment > 0 );\n\n        // send to msg.sender, not to recipient\n        if( msg.value > weiPayment ) {\n            msg.sender.transfer( msg.value.sub( weiPayment ) );\n        }\n\n        // send payment to wallet\n        sendETHToMultiSig( weiPayment );\n        raisedWei = raisedWei.add( weiPayment );\n        uint recievedTokens = weiPayment.mul( 600 );\n\n        assert( token.transfer( recipient, recievedTokens ) );\n\n\n        Buy( recipient, recievedTokens, weiPayment );\n\n        return weiPayment;\n    }\n\n    function sendETHToMultiSig( uint value ) internal {\n        multiSigWallet.transfer( value );\n    }\n\n    event FinalizeSale();\n    // function is callable by everyone\n    function finalizeSale() {\n        require( saleEnded() );\n        require( msg.sender == admin );\n\n        // burn remaining tokens\n        token.burn(token.balanceOf(this));\n\n        FinalizeSale();\n    }\n\n    // ETH balance is always expected to be 0.\n    // but in case something went wrong, we use this function to extract the eth.\n    function emergencyDrain(ERC20 anyToken) returns(bool){\n        require( msg.sender == admin );\n        require( saleEnded() );\n\n        if( this.balance > 0 ) {\n            sendETHToMultiSig( this.balance );\n        }\n\n        if( anyToken != address(0x0) ) {\n            assert( anyToken.transfer(multiSigWallet, anyToken.balanceOf(this)) );\n        }\n\n        return true;\n    }\n\n    // just to check that funds goes to the right place\n    // tokens are not given in return\n    function debugBuy() payable {\n        require( msg.value == 123 );\n        sendETHToMultiSig( msg.value );\n    }\n}\n",
  "sourcePath": "/Users/tuongbui/Storage/icosmartcontract/contracts/TokenSaleSmartContract.sol",
  "compiler": {
    "name": "solc",
    "version": "0.4.18+commit.9cf6e910.Emscripten.clang"
  },
  "schemaVersion": "1.0.1",
  "updatedAt": "2018-01-27T06:44:14.485Z"
}